:020000041800E2
:1080000000360020D5800018EB800018ED800018A5
:108010000000000000000000000000000000000060
:10802000000000000000000000000000EF800018C9
:108030000000000000000000F1800018D547021881
:10804000F5800018F5800018058F0018F5800018DD
:10805000F5800018F5800018F5800018F5800018EC
:10806000F5800018F5800018F5800018F5800018DC
:10807000F1470218F5800018F5800018F580001807
:10808000F5800018F5800018F5800018F5800018BC
:10809000F5800018F58000180000000000000000C6
:1080A00000000000000000000000000000000000D0
:1080B00000000000000000000000000000000000C0
:1080C000034885461CF062FB00480047C155021872
:1080D0000036002000200849086008480849086068
:1080E00001200849086008480047FEE7FEE7FEE770
:1080F000FEE7FEE7FEE700002C1000402580001898
:108100000C00001900000019C180001810B50AA168
:108110000EC986B06C460EC4002103AB6A46545C9F
:108120005C54491CC9B20C29F9D30C2219461CF025
:108130003FFB06B010BD00004E6F76202037203286
:1081400030323200F8B517460E460546302303227A
:108150000721F74800F098FF03210170297841704A
:108160006978C176E9880184A988C18401850446BB
:10817000A97820308172A978C1727C21618445215F
:108180000901A184002E08D070798009032816D037
:1081900006223146E7481CF00BFB002F21D0204679
:1081A000102239460A301CF003FB28896080288998
:1081B000002816D029780A2088430ED011E0A07E2E
:1081C00001210843A07606223146201D1CF0F0FA5A
:1081D000D8480622211D801DDDE7A07E042108432A
:1081E000A076204600F068FFF8BD10B504463023A5
:1081F00003220721CE4800F047FF032101702178B8
:1082000041706178C17621894180E1880184A2882A
:10821000C28402850146A27820318A72A278CA728D
:10822000E178002904D07C2141844521090103E043
:108230001B214184FF214931818400F03DFF10BDA5
:1082400010B5BD4B0C469A7E002806D00120024393
:108250009A76B8480622801D04E0500840009876BF
:108260000622B4481CF0A4FAB34806222146123074
:108270001CF09EFA10BD0146AF4810B51022801CBC
:108280001CF096FA10BD10B5AA4C01213E342046D0
:1082900003F009FD204610BD0146A64810B5202276
:1082A0003E301CF085FA10BDA14810B50123032211
:1082B0000721801E00F0E8FE0121017000F0FCFEA5
:1082C00010BD70B504460D463D2002230322072150
:1082D000400100F0D9FEA0340470457000F0ECFEBF
:1082E00070BDF8B50646924817460D463A2303225C
:1082F00007219D3000F0C8FE0446A420207066705F
:108300002A463946A01C1CF053FA204600F0D4FE41
:10831000F8BD10B5044686480223032207219E308B
:1083200000F0B2FEA5210170447000F0C5FE10BD42
:1083300010B504467E480223032207219F3000F037
:10834000A3FE042C01D3A82100E0A72101704470F2
:1083500000F0B2FE10BD70B505460E463D2020234C
:1083600003220721400100F08FFE0446A020207068
:1083700065701C223146201D1CF020FA204600F0BA
:108380009BFE70BD08B56A461180002191700421E2
:10839000FFF7A7FF08BDFFB50746654815460E461F
:1083A00081B0232303220721A23000F06DFE067066
:1083B0004770458004462A46001D04991CF0F8F9D0
:1083C000204600F079FE05B0F0BD10B5014602234D
:1083D00003225A4800F058FE012101701321417018
:1083E00000F06AFE10BD524810B501230322072198
:1083F000153000F049FE1A21017000F05DFE10BD3D
:1084000070B50D460A318BB201464C481646032220
:10841000C01D00F039FE04460020207065802A4609
:108420003146201D1CF0C4F9204600F045FE70BD09
:1084300010B50C46014641480A230322C01D00F036
:1084400023FE01210170448000F036FE10BD10B5FE
:108450000C46014639480A230322C01D00F014FED1
:10846000022101702188418061888180A188C180BA
:10847000E188018100F020FE10BD10B50C460146D8
:108480002E480A230322C01D00F0FEFD03210170C7
:10849000847000F011FE10BD70B50D4601462748EE
:1084A000144602230322093000F0EEFD44700570EB
:1084B00000F002FE70BD10B50C4601461F480E23A9
:1084C00003220A3000F0E0FD09210170218841807B
:1084D00061888180A188C180E1880181184941813A
:1084E000818100F0E9FD10BD70B50E4601461C46C5
:1084F0001546812006230322000100F0C5FD067009
:108500004580848000F0D8FD70BD70B50E460146F0
:108510000A481C461546042303222B3000F0B4FD04
:108520001721017085704670C47000F0C5FD70BDE4
:1085300004070000789400205891002004080000EF
:10854000FFFF000010B50C460146342303225948B2
:1085500000F09AFD28210C5400F0AEFD10BD70B55E
:108560000D4601465348144606230322293000F0E5
:108570008BFD142101704580848000F09DFDD6E7BD
:1085800010B50C4601024B4801230322C01C0831E0
:1085900000F07AFD047000F08FFD10BD70B50D463F
:1085A0000146444808230322103000F06DFD0446C4
:1085B0000A20207007222946601C1CF0F9F820468A
:1085C00000F07AFDB3E770B50D46014639481E2329
:1085D0000322143000F058FD04460B2020701C22AA
:1085E0002946A01C1CF0E4F8204600F065FD9EE73B
:1085F00010B50C4601462F4802230322183000F024
:1086000043FD0C210170447000F056FD10BDFFB514
:108610000E460146274881B0154622230322123018
:108620000A9F00F031FD0670457004463946801CF3
:10863000049A1CF0BDF8204600F03EFDC3E670B57C
:108640000D4601461B48164612230322163000F041
:108650001BFD04460570002D06D0102060740246F4
:108660003146601C1CF0A4F8204600F025FD5EE7B2
:10867000FFB507461046083083B20E4815460E4631
:1086800081B003220721E73800F0FEFC04461B20DE
:108690002070667067800320A0800020E080204664
:1086A0002A46083004991CF083F8204600F004FDA7
:1086B00089E6000002080000FFB518461D46083094
:1086C00016460F4683B281B003220721684800F0A6
:1086D000DBFC04461B20207066700198608003203C
:1086E000A080E78020462A4608300A991CF060F8EE
:1086F000204600F0E1FC05B0F0BD08B5009313463C
:108700000A460021FFF7D8FF08BDFFB5187A1621E9
:10871000484381B01C4600270321163000F05CFD61
:108720000646002532E00398002806D0E908405CA0
:108730006907490FC840C00726D0E90060680A1DD4
:10874000835A162078438019C38463688A1D9B5A14
:1087500094461B051B0D038563689B5A0122D203B7
:1087600053401B0B1B034385636862469A5A5204AD
:10877000920F022A27D05918012A27D00222163038
:108780001CF016F87F1CFFB26D1CEDB2207AA842D7
:10879000C9D8029800883080019870807771607A1B
:1087A0003071607A4006800F022811D0012812D063
:1087B00002222146B01D1BF0FBFF304605F0E7FA10
:1087C00004000AD00CE059581022D8E70422D6E75A
:1087D00010222168EEE70422EBE70298318801803D
:1087E000304600F053FD204685E7F8B51E46174693
:1087F0000C46069D01F019FD02462846083083B25A
:10880000210261200001891D00F03EFC0770868076
:10881000C58004462A46083007991BF0C9FF204648
:1088200000F04AFCF8BD70B51D4616460C4601F036
:10883000FCFC0246210228230E48891D00F024FC7E
:1088400004460120A080801EE0806670002D08D0C4
:108850001520207020463246294608301BF0A8FF1C
:1088600001E016202070204600F026FC70BD0000BC
:108870001B0700001906000010B50649002008700B
:108880000549032000F0DBFDFFF70EFD034904203E
:10889000086010BD00900020A45A021800E100E01A
:1088A000564901200A6B824302430A63086B800722
:1088B000C00FFBD070470CB500216A461170507094
:1088C0004F4811880180FFF7EBFF4D486A46001DB5
:1088D0000068009050881188000408430CBD0CB556
:1088E00080226B461A70587000209870D8701971E9
:1088F000080A5871080C9871080ED8714048009900
:10890000019A06C0FFF7CCFF3C48006B0CBD252147
:108910003A48490401633B4941633B49020481638E
:108920003A49C163816B03239B05994311438163DA
:1089300032493748403108603648486034480A3088
:1089400088603548C8603548086135484861354811
:1089500088613548C8617047C1084007334A400FF5
:10896000105C4900081A403840B2704702462F4B4D
:1089700010B5012008331C56944203DA401CC0B2E3
:108980001F28F8D91B56934205D0002903D101288E
:1089900001D9401EC0B210BD24490831085C70479F
:1089A00016494A6B52005208C00702434A63704797
:1089B000704700B58BB02520694608700120421E23
:1089C0000A54401CC0B20C28F9D3262008730D208D
:1089D000821E0A54401CC0B22728F9D3272008A9B8
:1089E000C87107486946282228381BF0E1FEFFF7C6
:1089F0008EFF01F052FC0BB000BD000040000050A3
:108A000028810020105000004000400000E400E4F5
:108A100050065A00500650005A060000071703007F
:108A2000070A03001010030310000303B05A0218D2
:108A300000B587B0002812D1334900914B21684618
:108A40000901018231490191314941823149029143
:108A50003149818231490391A7218900C18203F004
:108A600083FB07B000BD10B50024FFF7A2FF20462E
:108A700002F092FF204604F08CFA204604F08AFBB4
:108A8000204609F05FFA204600F051F910BD70B59C
:108A9000EFF3108472B62248857F03F07FFB2846EF
:108AA00002F07AFF284604F074FA284604F072FBBC
:108AB000284609F047FA284601F0DAFC284603F078
:108AC000A5FC284600F0E2FD284604F003F82846FD
:108AD00003F067FE284604F0D7F9284600F027F98E
:108AE000022D01D1FFF764FF84F3108870BD10B52B
:108AF0000B48007FC00706D105200007006B400728
:108B000001D403F009FB10BD003B0020B03F002062
:108B10000C080000BC470020141E0000D065002097
:108B2000049000201FB5022003F0D1FA68461022FD
:108B3000FE491BF03DFE6946002001F00EFD1FBD01
:108B4000EFF3108172B6FA4B9A8B82439A8381F3CA
:108B500010887047EFF3108172B6F54B9A8B024381
:108B60009A8381F310887047F24A916B4900490853
:108B7000530619439163916BC90FFCD1916BD26B72
:108B80000901090927231B019A1A06C070477CB501
:108B90006846FFF7E9FF05242407A0694008400064
:108BA000A061E34D2868E060E348A0616868411C6B
:108BB0000AD00099814202D100F004FA04E0A069D1
:108BC000102188430843A061A868411C0AD000997D
:108BD000814202D100F004FA04E0A0692021884318
:108BE0000843A061E868411C0AD00099814202D183
:108BF00000F004FA04E0A069402188430843A06122
:108C00000120FFF79DFF7CBDFEB500240520000775
:108C1000006B400707D5C9488069000501D50320CE
:108C2000FEBD0420FEBDC24FB88B002803D103F067
:108C30006CFA002801D00020FEBDEFF3108572B65B
:108C4000B88B00285CD103F060FA002858D10124C9
:108C50006846FFF789FF272201991201511A0098EF
:108C6000FF229132801C914200D2401C0201F86820
:108C70001209798BB24E431C0BD0831A1B011B09BE
:108C8000B34203D9101A000100094342994200DBA4
:108C900019467868431C0BD0831A1B011B09B34289
:108CA00003D9101A000100094342994200DB19461A
:108CB000B868431C0BD0831A1B011B09B34203D9AC
:108CC000101A000100094342994200DB19460129AC
:108CD00016DD0A204143388B491E401C88420FDCB8
:108CE000022405200007C2683A600022C260521EBA
:108CF0004261416384610262016B07221143016397
:108D000085F310882046FEBD10B500280ED08142A4
:108D10000CD90A225043864A80B2138B834204D076
:108D2000830205242407E3631083518310BD70B5CB
:108D300005257F4C2D07002828D0012801D00228C6
:108D400023D10021A183481EE06060602161A06002
:108D50002868012240004008D20710432860286894
:108D6000C00FFCD1052040036161E8632820208307
:108D70001920C0016083286B40004008104328631D
:108D80006C49704808620220A07770BD6E490220CD
:108D900003F084F96848A861C011A0830120F3E7BB
:108DA00063490120898BC90400D40020704770B545
:108DB000EFF3108572B65E4A052340241B07002896
:108DC00012D081684E1C0FD0C6681661D160594A16
:108DD00081681163C06827210901081A50631C6269
:108DE0009869A043204304E00020C043D060986904
:108DF000A043986185F3108870BD4D49431C4860BD
:108E0000052110220907002B06D04A4B58620A623E
:108E100088699043104301E08869904388617047F6
:108E200010B5434A441C9060052220231207002CF1
:108E30000BD0404CA06227200001401A80B2E062B3
:108E4000136290699843184301E0906998439061D8
:108E500010BD70B504460D461020FFF77BFE334869
:108E60002946102210381BF0A3FC607821780002FC
:108E70000843E178A27809021143090401432D480F
:108E8000403841636179227909021143E279A3797B
:108E900012021A4312040A438263617A227A090297
:108EA0001143E27AA37A12021A4312040A43C263FC
:108EB000617B227B09021143E27BA37B12021A43EE
:108EC00012041C4B0A431A604C21596004210522EC
:108ED0001207116293698B430B439361026B01216B
:108EE0008A430A43026370BD08210520000701621E
:108EF00082698A430A4382610168114A914311439E
:108F000001607047F8B505252D072E69EC693046DC
:108F1000204356D0E00603D51020286200F052F816
:108F2000A00615D52020286210E000004081002016
:108F300004900020C00000500C800000401003404E
:108F4000000000082C019001258B001800F048F863
:108F5000E00707D0012028624848007FC00701D001
:108F6000FFF715FE200404D500F0AAFB0120C00382
:108F70002862A00703D50220286200F04EF86006A0
:108F800003D54020286200F039F860070AD504278D
:108F90002F621020FFF7D4FDA869B843A861022012
:108FA00003F086F8200706D508212962A8698843BE
:108FB000A86103F0B2FBF003A7D5012000046861AB
:108FC000A3E7F8BD10B500202C49C0434860052137
:108FD0000907886910229043886103F0EDFB10BDFA
:108FE00010B500202549C04388600521090788691C
:108FF00020229043886103F042FB10BD10B5002091
:109000001E49C043C8600521090788694022904372
:109010008861042003F04CF810BD70B505242407C6
:10902000A56B0120FFF796FD144841694A195108C4
:109030004B00D21A42613E2045436D181049284624
:109040001BF01EFB0E4927224143691A1201511AD7
:10905000D20602430B4889B242600160206B0821AE
:10906000884308432063A069072109078843A0615A
:109070000120A061801E206270BD000004900020CD
:109080007102000040000050F8B504460F46184633
:109090001D46164602210C3000F09EF80021C943FF
:1090A00001608480C780068145810C3004462946D2
:1090B0001BF049FB2046F8BD10B5EFF3108472B6E3
:1090C000174A01460C39104601F029F984F310883B
:1090D000032002F0EDFF10BD10B50023FFF7D4FF11
:1090E000FFF7EAFF10BD03460C3BD9801A81E3E786
:1090F00030B404460C3CA180E280238130BCDBE725
:1091000010B500F0C3F810BD0C38C08870470C389B
:10911000008970470C380068401C00D0012070475F
:109120004492002030B5D31C9C088300894D51180F
:10913000A40089085B198900091B400040199C6143
:109140000185986941809969834808809969002060
:1091500048609969886030BDF3B5C01C850800245B
:10916000AD002D1D81B026460C2D00D20C25EFF34D
:10917000108772B60298042130181BF081FA080695
:10918000810D74482A46081880690C320EE0418827
:10919000A9420AD3914202D28368002B05D0002C49
:1091A00002D063888B4200D9044640680028EED183
:1091B000002C03D06088904200D20546761CF6B29F
:1091C000042E01D2002CD5D087F31088002C01D0BA
:1091D0000120FEBD0020FEBDF3B5C01C00248508A3
:1091E000AD002D1D81B0264627460C2D00D20C2542
:1091F000EFF31080009072B60298042130181BF033
:109200003FFA0806810D53482A46081880690C3237
:109210000EE04188A9420AD3914202D28368002B12
:1092200005D0002C02D063888B4200D904464068E8
:109230000028EED1002C03D06088904200D2054671
:10924000761CF6B2042E02D2002CD5D001E0002C00
:109250000BD06088A8420CD1A16860684860606843
:1092600000280AD0A168816007E03C4801F010F8AE
:1092700007E0401B80B26080041965803848208078
:10928000271D009880F310883846FEBDF0B50023F6
:10929000021F3449118054881946EFF31085AC46FB
:1092A00072B69D002B4E5F00AD19AD69BE19368DAB
:1092B000A84204D3AE19864201D3294601E05B1CC3
:1092C000DBB2042B01D20029EBD00020224B2DE091
:1092D0004D886D18954211D14888001982B24A8094
:1092E00048685318984228D14388D2184A80426867
:1092F0004A604068002820D081601EE08A4213D274
:109300004260906010191380884209D1486850600B
:109310004868002800D082604888001950800CE01E
:1093200051608A60548008E0084649680029CFD11E
:1093300042605160906054801380604680F31088D2
:10934000F0BD4038808F0649884201D00120704727
:1093500000207047449200205AA50000F2F2F2F279
:10936000388300000FF00000C088884201D101203E
:10937000704700207047F8B5EFF3108572B6784853
:1093800000F0EAFF0400774885F3108820603FD0A2
:109390002046FFF7D6FF00283AD1E288724B10062C
:1093A000800D1858A58803890027110A002B16D0B4
:1093B0008B4214DD0168002911D043892E465B1EC3
:1093C0000CD46A4FD800085AB04201D0B84203D139
:1093D000D8004018476802E05B1EF3D50027002F35
:1093E00005D021460C3123892846B84700E00020EB
:1093F000002804D001280BD0022809D103E0204620
:10940000FFF77EFE04E056482146083000F087FF53
:10941000EFF3108472B652480068002802D103208E
:1094200002F055FE84F31088F8BD10B53C214E487B
:109430001BF089F94E49032002F030FE10BD30B513
:1094400002460020EFF3108372B60F2A01D30320E7
:1094500007E0454C9200A558002D01D0042000E003
:10946000A15083F3108830BD10B502460020EFF301
:10947000108172B60F2A01D3022003E000233A4C78
:109480009200A35081F3108810BD70B5040AC3B2D6
:1094900000220F2B02DA9A00334B9A581389A34209
:1094A0001DDD5268121913788B4218D02C4E1170A2
:1094B000054608362A462F49304602F0B1FD0028FD
:1094C0000DD0EFF3108472B6254A0146104600F025
:1094D00026FF84F31088032002F0EAFDEAE770BD5E
:1094E000020AC3B20021FF200F2B02DA99001E4BA3
:1094F00059580B89934201DD4868805C7047002011
:10950000704702207047F1B5154800260746083716
:10951000046814E0A1790098814209D125462468A5
:1095200029460F4800F022FF2846FFF7E9FD00E03A
:109530002468002CEED1002E03D13C680126002CBB
:10954000F7D1F8BD020AC1B20F2907D88B0006492E
:10955000C958002902D00989914200D2FF207047E2
:1095600044920020FFFFFFFF24900020FFFF000037
:1095700077930018699300180C21AA4A4843811870
:109580004B68002B03D01058896802221847704797
:109590000C21A44A484381184B68002B03D0105873
:1095A0008968032218477047F8B59E4C0546C034B9
:1095B00020880126AE40304221D09B492801401826
:1095C00000888006400F062819D128460C21484300
:1095D000944A074680184368002B03D08168D0590D
:1095E00004229847A078A84203D1401C0007000F2E
:1095F000A0702088B04320802079401E20712079FF
:10960000012806D0002803D101204002FFF798FA74
:10961000F8BDA078401C0007000FE070F8BD70B5E1
:10962000044681490001401800880C218006420F41
:1096300020467C4D484341194B68002B05D0042A35
:1096400011D0002289682858984776480126C030F2
:1096500002883146A1408A4302800179491ECDB279
:109660000571C37804E00122ECE7641C2407240F91
:109670003146A1400A4201D1A342F6D18470002DA7
:1096800003D101204002FFF75BFA70BD70B50028DE
:1096900015D0012801D0022811D1C82161481BF042
:1096A00052F80020604A38231824010189180D88D7
:1096B0009D4325430D80401CC0B21028F5D370BDDA
:1096C00070B505200007446A2001050F260F20070A
:1096D00002D52846FFF75CFFE00602D52846FFF7D3
:1096E0004BFF600702D53046FFF75EFFA00702D5AB
:1096F0002846FFF794FF70BDF8B54A4E0446C036C1
:10970000F778B078381A0007000F0E2801D301202F
:1097100000E00020009038460C225043414A616826
:1097200011508018216981602168416001203188D1
:10973000B840014331803C493A01A08855186880FF
:1097400060680001000DA880208927210901081AFE
:10975000E8803649E068884208D9354940181AF04F
:109760008FFF0121C9030143698105E0C103012085
:10977000C0030818000C6881A17D1F201F2900D399
:109780000146607D1F221F2800D3104609020143B5
:10979000A981E07DE9891F22120291430002014361
:1097A000E981607E00282BD1207E70214843FF3064
:1097B000513080082881207F0028207D12D01F2171
:1097C0001F2800D308460099A27EC00289020843E0
:1097D000E47E11020843E1010843402102230843CB
:1097E00018430CE01F211F2800D308460099A37ED0
:1097F000C00289020843190202220843104328804C
:109800000120C0070B4938430860F078401C00076E
:10981000000FF0703079401C307101204002FFF7DA
:1098200099F9F8BD6490002000800020FF7F0000BF
:10983000710200000001005070B50C460546012978
:1098400001D107F097F9F84EAD007059A400005906
:1098500000280BD0FFF75EFC002804D17059005996
:109860000C38FFF74DFC71590020085170BD70B5E0
:109870000502083516460C462846FFF731FE1F281C
:109880000CD02846FFF72CFE002E02D001462143C3
:1098900001E0A04301462846FFF7F7FD70BD0246F0
:1098A000930010B5E04A8900D25800205158002991
:1098B00002D00846FFF72BFC10BDF7B50546870020
:1098C000D9488E00C0590C468059002812D028462D
:1098D000FFF7E5FF01462A02022398020832FFF74C
:1098E000D3FBD149C959895909780170029941704E
:1098F000FFF7E2FB21462846FFF79EFF0120A0402C
:10990000C1B200222846FFF7B2FFFEBDF1B582B01A
:109910000298C54F8500000279590830009000294F
:109920001DD0FFF7DDFD064600241F2E04D0214682
:109930000298FFF781FF09E07859A10040580028FC
:1099400004D0462221460298FFF7B7FF641CE4B218
:10995000032CEAD37859FFF799FC002078513F2176
:109960000098FFF792FDB148009902F0C1FAAF48A4
:109970000099801C02F0BCFAFEBD10B500280CD086
:10998000012817D0022807D100242046FFF7BEFF88
:10999000641CE4B2032CF8D310BDA5490820FFF7DE
:1099A0004EFD0020A34A3F211154401CC0B20328A1
:1099B000FAD310BD9C48002101604160816010BD58
:1099C000FFB585B00C46002528020830FFF788FD5A
:1099D0003F2803D06D1CEDB2032DF5D3032D3AD0F3
:1099E00000200090014601905820FFF7F5FB8E4FB4
:1099F000AE00B85158211AF0A6FEB959C820888780
:109A0000B9591F20403148752802083000210290C2
:109A1000FFF73BFDB959608840318880B859DF2194
:109A2000403082790A402179002900D00121490182
:109A30000A438271204612300622694603901AF0CA
:109A40008DFE0028B85908D006224E3003991AF02E
:109A5000AFFE012007E0FF254FE00622A11D4E309A
:109A60001AF0A6FE6079B9590622403108752046E1
:109A70000C30694603901AF071FE0028B85909D0DD
:109A80000622473003991AF093FEB859012140305D
:109A9000417308E00622473008991AF089FEB95947
:109AA0000E9840314873B959FF208881B9590798F9
:109AB000C8810798072820D001465C481223F13856
:109AC000029AFFF7E1FA0646608830806079062244
:109AD000C007C00F70723046A11D0A301AF068FE30
:109AE000208B7080608BB080A08BF080A07F307264
:109AF000207930743046FFF7DFFA284609B0F0BD10
:109B000010B50446FF2801D0FFF700FF204610BD26
:109B100070B5144602021E4644480D4604233146E1
:109B2000EF380832FFF7B0FA04808570FFF7C4FA07
:109B300070BD03463C4A002081005158002903D0E3
:109B400040318988994203D0401CC0B20328F3D326
:109B5000032800D1FF20704701463748032906D269
:109B60008A0031498958002901D0403188887047DE
:109B700001460020FF2908D08A002B498958002976
:109B800003D0403188798006C00F704770B5264DEC
:109B900084002859062247301AF00AFE285901216C
:109BA0004030417370BD02460020FF2A0AD00229CE
:109BB00008D293001C4AD258002A03D0C800401A89
:109BC00047301018704701468A001749002089580D
:109BD000002901D04031887D704770B516461C467B
:109BE00002020D460223314698020832FFF74CFA72
:109BF00005704470FFF760FA70BD024693000A4A90
:109C00008900D25800205158002900D008787047A8
:109C1000054A80001058890040587047024B800068
:109C200018588900425070472C910020F20800001B
:109C3000286602181C930020FFFF0000F8B5544A64
:109C400005468700D0598E008059002400280AD08C
:109C50000124FFF75CFA02464D482902C059083139
:109C60008059FFF740FA2046F8BD4949800008585E
:109C7000C089D8E7024600209200454B002909D050
:109C800001290CD00229CED1985840308079C006E5
:109C9000C00FC8E79858403080794007F8E79858D7
:109CA000403080790007F3E7014600200329BAD24B
:109CB0008A00374989580029B5D040318879800712
:109CC000800FB0E701460020FF29ACD08A00304960
:109CD00089580029A7D02031887FA4E7F0B5032850
:109CE00027D22B4F8300FC58002C22D04034A5797A
:109CF000FB263540CE07760F3543A571FC58EF267D
:109D000035401201154340340020A5710A0701D5E2
:109D1000032008E04A0701D5022004E0C90701D169
:109D2000290700D50120AA08F958920002434031C2
:109D30008A71F0BD01460020032911D28A0014491E
:109D4000895800290CD0403189794A0700D5012073
:109D50008907890F022904D0032901D10C21084366
:109D600061E70421FBE710B51924E401401EA0427D
:109D70000AD2491EA14207D206480A3B834203D2B7
:109D8000FF20F430824201D9002010BD012010BD17
:109D90002C910020770C000070B505460C4607207A
:109DA000FFF79EFB08280BD00122AA40002C02D00E
:109DB0000243D1B201E0904301460720FFF765FB63
:109DC00070BD70B5B64D064684002859002809D0EC
:109DD000FFF7A0F9002805D128590C38FFF790F9B2
:109DE0000020285100213046FFF7D6FF70BD70B526
:109DF00000250646002804D0012E16D0022E1FD1C1
:109E00000AE0A8490720FFF71AFBA548056045604E
:109E10008560A548057013E007F04FFD0024E0B20F
:109E2000FFF7CFFF641C032CF9DB304607F03FFE41
:109E30009B4808212030057645760720FFF725FB53
:109E4000304600F037F93046FFF797FD70BD03B597
:109E5000934985B0888301230393944A0821002005
:109E60006B4607C38E4803210B2306AAC9021C3088
:109E700003F080FA07B000BD70B51446054600290E
:109E800008D0072202231002FFF7FEF80570447085
:109E9000FFF712F970BDF7B582B014460E460025E3
:109EA0000720FFF71DFB3178009108282DD002997B
:109EB0007B4A89005258B24226D0029B01220027D9
:109EC0009A40024205D002251FE0009A904204D039
:109ED000641C20780028F8D114E00006000E11D090
:109EE0006F480125465029460298FFF755FF002F7D
:109EF0000BD03046FFF70BF901463A460098FFF7C2
:109F0000BBFF02E04027F4E70125284605B0F0BD7D
:109F100001468A00624900208958002900D008784B
:109F2000704701468A0010B55D4900208958002914
:109F300002D00846FFF7EBF810BD70B50E46054697
:109F4000574980000C58002C0DD02846FFF7E9FF38
:109F50000146072202231002FFF796F821780170CC
:109F60004670FFF7A9F8012D03D14D48FF2140307D
:109F700001712846FFF725FF70BD49482030807EDB
:109F80004007400F7047F8B5454B05463233FFF7A1
:109F9000F4FFC0070C790322C00F002C10D1404AF7
:109FA0003F4C4032D27892001219D468A27B022A28
:109FB0001DD0A28A667C002E02D0234616330120D3
:109FC00000902846FFF7FCFC0446FF280DD03449DA
:109FD0002031487E401C4876204603F029F920466F
:109FE00004F0B5FA204600F0DFF82046F8BD07225D
:109FF000E0E770B515460446FF2811D0284B203302
:10A00000587E401E58762046FFF77AFD204603F022
:10A0100028F9204604F09FFA2946204600F0D9F896
:10A0200070BD1F48808F70471D48C08F7047024623
:10A0300040201B3AE02A07D8FF224932914203D33D
:10A040001B4A914200D80020704715482030C07E3E
:10A05000C007C00F704712482030C07E8007C00F75
:10A0600070470F482030807E8006C00F70470C4933
:10A070000246898B002000290AD0881880B2062A5F
:10A0800006D907492031897E890601D4801E80B215
:10A090007047034822307047014832307047000053
:10A0A00038910020246902181F930020D65A021804
:10A0B00048080000F1B50024744D26460098002899
:10A0C00004D001281BD0022824D109E01421204605
:10A0D0006143093049190882C0B2FFF7B0F919E0AD
:10A0E000142060434719788A00F0C5F8002802D090
:10A0F00041683846884720460930FFF704FA214670
:10A10000142041434819FF22C66042826E504660C7
:10A1100006814681641CE4B2062CCFD35B48001F45
:10A120000660F8BDF3B5054681B00026408800F012
:10A13000A2F801000AD0554F6A8800201423434337
:10A14000DB195B8A934203D142262BE0402629E0AB
:10A15000401CC0B20628F1D3002E23D100241420C5
:10A160006043C019408AFF2806D0641CE4B2062C64
:10A17000F5D3062C15D015E02846083000901420A1
:10A180006043C0190E686B78AA880746A91DB047BE
:10A190000600EED16888788220460299093008804E
:10A1A000E7E74B263046FEBDF8B5384E074600249B
:10A1B000142060438519688A00F05DF8002803D0F8
:10A1C0008268394628469047641CE4B2062CEFD3D7
:10A1D000F8BDF3B52D4E81B00F4600241420604326
:10A1E0008519688A00F047F8002804D0C3683A4609
:10A1F000284601999847641CE4B2062CEED3FEBDB4
:10A2000010B50024214A214614234B439B185B8A36
:10A21000834204D1142041438818C46803E0491CD8
:10A22000C9B20629F0D3204610BD42885004400C24
:10A23000D20B01D009020843704702885004400C39
:10A24000D20B01D009020843704730B5FF23040A3E
:10A25000C5B20E490020142242435218528AAA4223
:10A2600002D10346093303E0401CC0B20628F2D3F2
:10A270002002184330BDFF2805D00449091F096892
:10A28000002900D008470020704700008891002076
:10A2900072B6002000470000704701229207D06A82
:10A2A000D1140843D0621248026803159A43026031
:10A2B000026843159A430260026883149A4302605D
:10A2C000026843149A43026002688A43026001688C
:10A2D0000214914301604168064A11407D22D20474
:10A2E000891841604168032212031143416070479D
:10A2F00000900040FFFF00E00021016041607047D6
:10A3000030B500245B1E016003E08D180D60294606
:10A31000641C9C42F9D300220A60416030BD02688F
:10A32000002A05D042681160416000200860704733
:10A330000160F9E70368002B05D0436819604260AB
:10A340000020106070470160F9E70268002A00D120
:10A3500041600A600160704702460068002804D02E
:10A3600001681160002900D15160704710B50024C8
:10A370002346026805E08A4201D1012405E0134624
:10A380001268002AF7D1002C07D00A68002B06D0EB
:10A390001A6042688A4200D14360204610BD0260C4
:10A3A000F7E7002906D013680B604368934200D199
:10A3B0004160704703681B680360F6E71368002973
:10A3C00005D00B604368934200D141607047036041
:10A3D000F8E70068884201D00028FAD1884201D10C
:10A3E000012070470020704703680A68002B06D0E0
:10A3F00043681A604A684260002008607047026043
:10A40000F8E710B40C000ED00023016801E00B4601
:10A410000968A14201D00029F9D1002B03D01A60AC
:10A42000116010BC704710BC11468EE70B000DD0B8
:10A43000016800E00968994202D00029FAD105E0DC
:10A44000002903D00B68002B02D002E0114666E71A
:10A450004260086810600A60704701460020096881
:10A4600002E00968401C80B20029FAD17047000060
:10A4700010B5002812D05C4C01280AD002280DD15A
:10A480002068002805D05848FFF766FFFEF7FEFE5B
:10A49000F6E75548FFF730FF0020207210BD70B579
:10A4A0000E461C4615460321FEF796FE4660856063
:10A4B000446170BD70B50C460646014615464A48D3
:10A4C000FFF72DFF484A3561F460137A204629468C
:10A4D000002B03D101231372FEF7BBFC70BD70B5D6
:10A4E0001C46049B002A0D460646224617D0002132
:10A4F0003820FFF7D4FF04463146183010220646B4
:10A500001AF056F9204629462830102205461AF03E
:10A510004FF92A4631462046FFF7CCFF70BD002197
:10A520001820FFF7BCFF2A463146F5E7F0B589B0A1
:10A530000E460746002401AD1AF0CCF8A100641CB9
:10A54000E4B26850082CF7D33B46012205A901A8C4
:10A550000096FFF7C4FF09B0F0BD70B505460E4682
:10A560002148FFF7F9FE20490446002208680A72D4
:10A57000002805D001220A720169C068FEF769FC53
:10A58000002C13D0002D07D16268002A04D0314678
:10A5900020469047002809D0A368002B03D03146FD
:10A5A0002846626998472046FEF770FE70BD30B5B8
:10A5B0005B1E5BB2002B04DBCC5CD55C6C40C454EE
:10A5C000F6E730BD10B50F228418203C835CE47F91
:10A5D0005B00E40923438B54521E1206120EF3D182
:10A5E00000784000087010BD0092002010B51F21B7
:10A5F000425C002A01D1491EFAD5491C02D10178DA
:10A60000002905D0FB4C1F21425C635C9A4201D9B2
:10A61000002010BD9A4201D3491EF5D5012010BD7E
:10A62000F0B500248446082325469E0060468759DD
:10A6300088593F18284668413F1904466C41E40791
:10A64000E40F2846204301D0012400E00024975164
:10A650005B1EEAD500208300D158002902D1401C9E
:10A660000928F8DB0921091A95625162F0BDF8B595
:10A670000023009094468E460820860000993246BA
:10A680008C5971468E580025F71829466941E71BF9
:10A690008D4106D2F118611A091C634699500123B5
:10A6A00004E0F118631A61468B500023401EE4D584
:10A6B0006146002082008A58002A02D1401C0928E5
:10A6C000F8DB0922101A4862F8BD10B504460146AD
:10A6D000C8488CB06A464C30FFF7C9FF694624224F
:10A6E00020461AF06BF8099860620020A0620CB056
:10A6F00010BDF0B500228E4608239E00B446855951
:10A7000071468E590024B71821466141EF1B8C41D8
:10A7100006D2B118691A091C62468150012204E070
:10A72000B1186C1A6146445000225B1EE5D5002129
:10A730008A008258002A02D1491C0929F8DB092223
:10A74000511A4162F0BD70B51546FFF769FFA86A5E
:10A75000002803D02846FFF7B8FF70BDA54A686AF5
:10A760004C32516A88420ED88842F6D30921091A20
:10A7700007E08B00D458E8588442EED8844202D3D4
:10A78000491C0929F5D39B4928464C31FFF7B1FFF5
:10A7900070BDF0B5002308221C46950046594F595C
:10A7A000F61927466741F6186741FB07DB0F23437D
:10A7B00001D0012300E0002307464651521EECD58C
:10A7C00000218A008258002A02D1491C0929F8DB9D
:10A7D0000922511A7962F0BDF0B5044685488BB064
:10A7E0004C308646A06A00280BD0824D606A4C35FA
:10A7F000696A234688424CD8884223D30921081A23
:10A800001EE00022082013468500714666594F5904
:10A81000F6191F465F41B1185F41FA07D20F1A437C
:10A8200001D0012200E000226151401EECD519E068
:10A830008200A9589A58914204D8914229D3401CC9
:10A840000928F5D36B486A4619464C30FFF70FFFCD
:10A85000694625462422204619F0B0FF099868620F
:10A860000020A062002108460B468200A558ED1882
:10A870005941C9076E080E4369084900691A401C0E
:10A88000A6500928F1D3002081006158002920D169
:10A890001CE000220823980071460F588446265871
:10A8A0000025B81829466941301A8D4106D2B818DA
:10A8B000301A001C61466050012204E0B818321AB8
:10A8C0006046225000225B1EE5D5CBE7401C0928DC
:10A8D000DADB0921081A60620BB0F0BDF0B50B4657
:10A8E0000446816A002601270922986A8BB0002954
:10A8F00008D0002808D0586A616A88423AD888424D
:10A9000019D32BE0002804D019462046FFF741FF59
:10A91000E2E7606A596A88420DD8884210D3101A5B
:10A9200007E082009958A258914209D8914202D377
:10A93000401C0928F5D319462046FFF7DAFECBE77D
:10A940006A4621461846FFF792FE694624222046B1
:10A9500019F034FF0998A7626062BDE7101A07E09A
:10A960008200A1589A589142E5D8914202D3401CE6
:10A970000928F5D36A4621461846FFF778FE69464E
:10A980002422204619F01AFF0998A6626062A3E704
:10A99000F8B50D460346816A0127A86A14460029C6
:10A9A0000AD0002838D0686A596A884247D8884255
:10A9B0004BD30921081A40E0002804D02946184644
:10A9C000FFF72EFE18E0586A696A88420ED888425E
:10A9D0001ED30921081A07E08200A9589A5891420B
:10A9E00016D8914202D3401C0928F5D322462946A5
:10A9F000184627E0705B02180020FE4BA062606AD8
:10AA0000596A884231D888420ED30921081A2AE0AF
:10AA10002246194628461BE029461846FFF700FE45
:10AA20002046A762FFF751FEF8BD82009958AA5848
:10AA300091420AD8914202D3401C0928F5D32246FC
:10AA400019462846FFF713FED6E722462946184640
:10AA5000FFF70DFEE4E782009958A2589142E3D82F
:10AA6000914202D3401C0928F5D3E2492046FFF762
:10AA700040FEF8BD10B54342421E88600020C86009
:10AA80000CC1441E083115C10C604B60C8601C39F4
:10AA9000002A01D0092000E00820486210BDF0B56E
:10AAA0008BB004466846242119F04DFE0020099021
:10AAB0000A90A76A0925002F13D1CE4B606A596A04
:10AAC000884210D8884243D3281A07E08200995858
:10AAD000A258914205D8914205D3401C0928F5D3CC
:10AAE00001E0012F34D1606A082815D9281A8000A6
:10AAF00020586946FFF7BEFFA06A002808D0002052
:10AB0000A06269462046FFF7E9FE0120A06222E02C
:10AB100069462046FFF7E2FEA66A002E19D1B54B22
:10AB2000606A596A88420FD8884211D3281A07E010
:10AB300082009958A25891420BD8914202D3401CEE
:10AB40000928F5D3012E06D0AA492046FFF7D1FDEA
:10AB5000C2E6012EFCD12046FFF7B7FDBCE6F7B5F3
:10AB6000A0B020981490219817906846482116901C
:10AB700019F0E9FD00201290082513900026082402
:10AB8000A80015901499A20008581799895819F02F
:10AB90009FFE62199300169A9F187B6800229B19EA
:10ABA0005241C01851410E467860641E01D4159878
:10ABB000E8E76D1EE2D56946002082008A58002A27
:10ABC00002D1401C1228F8DB1226301A8864209823
:10ABD000816A2198806A814201D0012000E0002032
:10ABE00000246D46139000E0641CA0002858002843
:10ABF00001D1092CF8D313981E907E4812992C305D
:10AC0000836C2A46994218D899421AD3711A10E0D7
:10AC10008B00C658D3589E420AD0890040586958C4
:10AC2000884201D2012000E00020002805D108E080
:10AC3000491C1229ECDB00E0641CA0002858002805
:10AC4000FAD0A0004119242214A819F0B7FD14A9C4
:10AC5000002082008A58002A02D1401C0928F8DB13
:10AC6000092614E0FFF71BFF14A8202215A919F0EC
:10AC7000A5FDA0004019406A1C90002014A9641C86
:10AC800082008A58002A02D1401C0928F8DB301AB9
:10AC900048622046093012280846E3D3FFF7FFFE3A
:10ACA000229C14A92422204619F088FD1D98606278
:10ACB0001E98A06223B0F0BDF7B582B002980025BF
:10ACC0001746082400900098A6008059039919F0AF
:10ACD000FFFD401900225141B8510D46641EF2D5C6
:10ACE00000208200B958002902D1401C0928F8DB55
:10ACF0000921091A79620298806AB8623846FFF71A
:10AD0000CEFE05B0F0BD10B500229300C458CB585C
:10AD10009C4201D0012010BD521C092AF5D300200D
:10AD200010BDF0B50C460146FDB0583100918C467F
:10AD3000019021462F4E2C31026D7C360391314615
:10AD4000054627462C312C35583758360291012AB2
:10AD500002D8296A00297DD026497C31FFF7D3FF2C
:10AD600000280BD128460299FFF7CDFF002805D116
:10AD700031466046FFF7C7FF002876D03BAA00990E
:10AD80000198FFF7E0FC46AA00990198FFF700FE42
:10AD900051AA46A93BA8FFF7E2FE0FAA032151A83A
:10ADA000FFF78AFF04AA28460099FFF7D8FE3BAABE
:10ADB00004A92846FFF7D3FE1AAA3BA90198FFF77A
:10ADC000CEFE0FA93BAA0846FFF7C9FE46AA0821F6
:10ADD0001AA8FFF771FF25AA46A93BA8FFF7D8FDDF
:10ADE0003BAA04A925A8FFF7BAFE224602213BA8E8
:10ADF00002E00000BC5B0218FFF75EFF29463BAA99
:10AE00000846FFF7ACFE04A930AA0846FFF7A7FEE4
:10AE100046AA30A93BA8FFF7A2FE51AA082146A8DE
:10AE2000FFF74AFF5CAA04211AA8FFF745FF67AAAB
:10AE300025A95CA8FFF7ACFD72AA67A90FA8FFF7C8
:10AE40008EFE51A972A8039AFFF7A2FD3BAA04A99E
:10AE500030A800E009E0FFF782FE3A4608213BA84F
:10AE6000FFF72AFF00207DB0F0BDFE4D24222946C9
:10AE7000204619F0A3FC686A6062A86AA062029D7D
:10AE8000039C24222946204619F098FC686A6062D7
:10AE9000A86AA06224223146384619F08FFC706AF5
:10AEA0007862B06AB862DDE7F7B5FFB0B3B0B298C8
:10AEB00083902C307B908190B298829158307F9013
:10AEC0007D9008462C307A9080902C300E467E90F3
:10AED0007C9015462421104619F035FC00242F469D
:10AEE0006C622C37AC6224213846A59719F02BFCF4
:10AEF0007C62BC622C372421384619F024FC7C6229
:10AF000037A82421BC6219F01EFC40940BA8242110
:10AF1000419419F018FC149442A82421159419F0B6
:10AF200012FC4B9416A824214C9419F00CFC1F948D
:10AF300021A82421209419F006FC2A946846242193
:10AF40002B9419F000FC09944DA824210A9419F0BF
:10AF5000FAFB569458A82421579419F0F4FB6194F5
:10AF600063A82421629419F0EEFB6C942CA8242190
:10AF70006D9419F0E8FB35949AA82421369419F0C1
:10AF8000E2FBA3946EA82421A49419F0DCFB77942F
:10AF90007894B449B298FFF7B6FEB24C0146204609
:10AFA0002C305834799000290BD101467B98FFF75B
:10AFB000AAFE002805D121467F98FFF7A4FE0028AD
:10AFC00006D03046A749FFF79EFE002831D03CE06E
:10AFD0003046A449FFF797FE00280BD179997A985B
:10AFE000FFF791FE002805D121467E98FFF78BFEE2
:10AFF00000287CD024223146284619F0DFFB706AF5
:10B000006862B06AA8627A9DA59C242229462046DF
:10B0100019F0D4FB686A6062A86AA0627E9C242250
:10B020002146384619F0CAFB606A7862A06AB862A5
:10B03000F7E079997A98FFF766FE002805D1214656
:10B040007E98FFF760FE002806D03046B299FFF7E1
:10B050005AFE002817D022E0B29C2422214628461E
:10B0600019F0ACFB606A6862A06AA8627B9DA59C2F
:10B0700024222946204619F0A1FB686A6062A86A6A
:10B08000A0627F9CCBE77B997A98FFF73CFE002873
:10B090002DD1306D012802D8F06C0028A9D037AA34
:10B0A0007D998098FFF75BFD0BAA7C998198FFF74B
:10B0B00056FD42AA7D998298FFF751FD16AA7C9908
:10B0C0008398FFF74CFD16A942A8FFF71CFE002845
:10B0D0007ED021AA0BA937A8FFF75AFC6A4616A909
:10B0E00042A8FFF755FC58AA7C997D9800E07EE0C5
:10B0F000FFF735FDA6A8242119F025FB0024AF9405
:10B1000084A82421B09419F01EFB8D948FA82421CB
:10B110008E9419F018FB989479A82421999419F029
:10B1200012FB6946829463AA08468394FFF717FDD1
:10B130002CAA694663A8FFF712FD21A99AAA08461E
:10B14000FFF70DFD6EAA16A963A8FFF708FD79AAFF
:10B1500002216EA8FFF7B0FD84AA58A99AA8FFF7AC
:10B16000FEFC8FAA2CA984A8FFF712FC4DAA79A98E
:10B170008FA8FFF70DFC2A464DA96846FFF7EFFCA4
:10B1800079A8242119F0DFFA829484A824218394D9
:10B1900019F0D9FA8D948FA824218E9419F0D3FA3E
:10B1A000989479AA4DA96EA89994FFF7F1FB84AA07
:10B1B00079A921A8FFF7D3FC8FAA0BA92CA8FFF728
:10B1C000CEFC8FA984A8A59AFFF7E2FB3A4600E0DF
:10B1D00007E058A92CA8FFF7C2FC01207FB036B0C9
:10B1E000F0BD0BA937A8FFF78EFD002815D01D4E26
:10B1F00024223146284619F0E1FA706A6862B06A82
:10B20000A862799EA59D24223146284619F0D6FAD7
:10B21000706A6862B06AA86201E72946B298FFF7CF
:10B2200080FD0020DAE7F3B5ADB000240546846266
:10B2300016A8242119F087FA1F9468462421209427
:10B2400019F081FA09940BA8242229460A9419F0CE
:10B25000B5FA686A1490A86A024D15907C3D21A841
:10B26000242201E0385C0218294619F0A7FA686A1E
:10B270002A90A86A2B90012008941E901F90099094
:10B280000924A5E000220BA9104615468300CE58DC
:10B2900076196A41D2077708174372085200B21A2A
:10B2A000401CCF500928F1D3002082008A58002A80
:10B2B00002D1401C0928F8DB201A48621E98C007FA
:10B2C00006D016A8FFF788FA1398C007DAD03DE039
:10B2D000002216A910468300CE5876196A41D2077B
:10B2E0007708174372085200B21A401CCF50092841
:10B2F000F1D3002082008A58002A02D1401C09287C
:10B30000F8DB201A4862DFE7002221A91046154623
:10B310008300CE5876196A41D2077708174372081E
:10B320005200B21A401CCF500928F1D300208200ED
:10B330008A58002A02D1401C0928F8DB201A4862EA
:10B340000898C0070FD06846FFF746FA2998C0074B
:10B35000DAD02A9914980BAD21AB884229D88842BB
:10B360002ED3201A23E00022694610468300CE58CF
:10B3700076196A41D2077708174372085200B21A49
:10B38000401CCF500928F1D3002082008A58002A9F
:10B3900002D1401C0928F8DB201A4862D6E7820057
:10B3A0009958AA5891420BD8914202D3401C0928BF
:10B3B000F5D319462846FFF79CF9694616A805E01B
:10B3C00029461846FFF795F916A96846FFF786FA49
:10B3D0001498002897D10A98002801D0684614E0F4
:10B3E000FB4B0999586A6D46884212D888420BD3A4
:10B3F000201A07E08200A9589A58914204D8914235
:10B4000007D3401C0928F5D32846FFF748FB6946B7
:10B4100000E029462E9C2422204619F0CFF90998F5
:10B4200060620A98A0622FB0F0BD70B58CB00D4676
:10B430000446164669465830FFF7F5FE2A46694627
:10B440002046FFF78CFB2046324669462C30FFF73A
:10B4500086FB0CB070BDF0B50546C9B0EC1DF934E3
:10B460000830429021464031606C4491097A3F2770
:10B470000BAA16AB47934892012925D0022923D065
:10B4800003297DD004297CD103287BD005287AD0DC
:10B49000A5218900062877D0072876D001460939EA
:10B4A00006296ED884214843E36C411A5A18C949C9
:10B4B00040181918E72080001818FFF7F5FC606C99
:10B4C0000F287DD0401C6BE101297AD0E26CFF216E
:10B4D000091A490989004919FF3101314B69C1062F
:10B4E000C90ECB40DE07BF231B1A5B099B005B190B
:10B4F000F60FFF3301335B69CB40DB079B0FF61878
:10B500007F231B1A5B099B005B19FF3301335B69C7
:10B51000CB40381A4009DB0780005B0F4019F31855
:10B52000FF30013040692E46C840C007000F181890
:10B530002CAB45932B46343337A960364493469160
:10B54000002850D0842148438718843F684624222D
:10B55000394619F033F9786A0990B86A0A90384682
:10B560002C30439024224399489819F027F94398A6
:10B570002422406A149043985837806A159005E059
:10B580005EE05BE003E10DE117E127E13946479812
:10B5900019F014F9786A1F90B86A209021AA6846B9
:10B5A0004299FFF781FC429F21A92422384619F0D5
:10B5B00005F92A9878622B98B8622422449F01E00A
:10B5C00015E137E03846459919F0F8F83598786272
:10B5D0003698B86224223046469919F0EFF8409820
:10B5E00070624198B062606C002825D021A9429811
:10B5F000FFF797FB429D21A92422284619F0DEF887
:10B600002A9868622B98A862449D2422284645996E
:10B6100019F0D4F8359868623698A862242230462A
:10B62000469919F0CBF8409870624198B062606C0E
:10B63000401EB5E0684A4AE70020686049B0F0BDA6
:10B6400028468C3069460646FFF76BFB6946242284
:10B65000304619F0B3F8099870620A98B0622F4624
:10B66000B83724223846489919F0A8F81498786217
:10B670001598B862E43524222846479919F09EF8B7
:10B680001F9868622098A862606C401C6064402823
:10B6900036D0802854D0C028D0D13046E721E66C7F
:10B6A000890071184291439001462422429819F072
:10B6B00085F843984299406A486243984299806A63
:10B6C00088627920C000301824223946429019F04F
:10B6D00075F84298796A41624298B96A8162FD20A0
:10B6E0008000361824222946304619F067F8686A27
:10B6F0007062A86AB06244980421017203204FE08E
:10B70000E46C30462146843142960E46014624229E
:10B71000304619F053F842982422406A70624298E9
:10B720003946806AB0622646B036304619F046F88F
:10B73000786A7062B86A24222946DC34B0621EE05E
:10B74000E46C24222046FF308D303146429019F0BF
:10B7500035F84298716A4162B16A42982646FF36CE
:10B760008162B93624223946304619F027F8786AC2
:10B770007062B86A2422FF342946E534B06220465C
:10B7800019F01CF8686A6062A86AA06256E7E06C6B
:10B790000246FF32014609328431FFF785FB05205E
:10B7A00060644BE72121E06C090142180146FF313A
:10B7B0008D31FFF779FB0620F2E7E06C4218014675
:10B7C000FF318D318430FFF76FFB0720E8E7000081
:10B7D000BC5B02185CFBFFFFBC5C0218E06C6322E0
:10B7E000D20082184118FFF75FFB0920D8E7449880
:10B7F00002210172676421E770B5CEB00D4606469E
:10B800006846242118F09FFF002409940BA82421E6
:10B810000A9418F098FF149416A82421159418F08F
:10B8200092FF1F9421A82421209418F08CFF2A94C1
:10B830002CA824212B9418F086FF359437A82421B6
:10B84000369418F080FF409442A82421419418F0C7
:10B850007AFF29464B946A4608464C94FFF77FF9D5
:10B8600031460BAA0846FFF77AF916AA0BA930460B
:10B87000FFF775F9314621AA0846FEF764FF2CAAA6
:10B88000314621A8FEF75FFF37AA2CA916A8FFF7BB
:10B890007FF842AAFA4937A8FEF755FF242242A9A9
:10B8A000684618F05BFF002802D000204EB070BD43
:10B8B0000120FBE7F0B597B0002000F008FCF1484C
:10B8C000FEF74AFD05005ED06868002807D02846CC
:10B8D000FFF7C1FD2946EB48FEF721FD53E0EE1DC1
:10B8E000F936F18FFF294ED0B08F4023FF22FDF7AC
:10B8F000CBFB04466846242118F025FF00270BA83F
:10B90000099724210A97169018F01DFF28461497CE
:10B91000159769460830169AFFF787FDF06C0028E6
:10B9200001D0FDF7B3FC2846FDF7B0FC1F20012233
:10B930006D4691006B58521C1B0E23546B581E0C05
:10B940002318203BDE776E5A001F360A9E77695C0B
:10B9500059770028EDDA1F20012399004A19D16A8E
:10B9600020270E0E21187E54D66A001F360CCE7783
:10B97000968D5B1C360A8E77928D4A770028ECDA1A
:10B980002046FDF799FBBF480068002802D0002040
:10B9900000F08EFB17B0F0BD70B5002808D001286C
:10B9A0001DD0022808D1002000F091FBB54C09E021
:10B9B000B549002000F072FB70BDFDF767FC28461A
:10B9C000FDF764FC2068002809D0AE48FEF7C4FCEF
:10B9D0000546FF300130C06C0028F0D0EDE7A948E3
:10B9E000FEF78AFC70BDFFB5D5B01220169000207E
:10B9F0000E464290012100900B909C461F20331868
:10BA0000203B355C5C7F2D066419DD7F9B7F2D0418
:10BA10001B02EB18E4188D0042AB5C511418203C5B
:10BA2000135C677F1B06FF18E37FA47F1B042402BF
:10BA30001B19FC186B465C5163461C18203C1B5CB0
:10BA4000677F1B06FF18E37FA47F1B0424021B19DA
:10BA50006C46FB182C19001F491CE3620028CEDA43
:10BA600042A9002082008A58002A02D1401C0928DD
:10BA7000F8DB0922101A4862694600208300CB587F
:10BA8000002B02D1401C0928F8DB101A48622C3127
:10BA900000204D918300CB58002B02D1401C092877
:10BAA000F8DB0922101A486200250A9515956846A8
:10BAB0004D99FFF7A1FE00287ED0FF2021AE032183
:10BAC0005130FDF789FBC51DF935044600274E9519
:10BAD000EF64FF304130559950904F9001725E985D
:10BAE000A8875F98E8876946519101201F902097A9
:10BAF000242116A818F027FE01201E90304624228B
:10BB0000519918F05BFE09982A900A982B903046BC
:10BB10002C304D992422519018F050FE14983590F5
:10BB2000159836903046583016A924224D9018F0BA
:10BB300045FE0120214640908C3130460E465391FF
:10BB4000014641972422304618F038FE2A98706248
:10BB50002B98B0622646B836519924223046529628
:10BB600018F02CFE359870623698B0622C364D99DC
:10BB700024223046519618F021FE40987062419878
:10BB8000B0622C3642A92422304618F017FE4B989A
:10BB900070624C98B062012026461F90083624211E
:10BBA000209716A818F0CFFD16A9242230461E971C
:10BBB00018F004FE1F9800E026E070622098B06242
:10BBC00001201E9030462C3016A924224D9018F0EA
:10BBD000F5FD4D981F9941624D9820998162583624
:10BBE00016A9242230461E9718F0E8FD1F987062AF
:10BBF0002098B0623F202F646864092060604F98ED
:10BC0000007A022803D030E0169859B0F0BD032125
:10BC10001E48FDF7E1FA05464E982422C564539F5D
:10BC20002846394618F0CAFD786A6862B86AA86280
:10BC30002E46529F2C3624223946304618F0BEFD3F
:10BC4000786A7062B86AB062519F583524223946CA
:10BC5000284618F0B3FD786A6862B86AA8625098FE
:10BC6000032101724E990020486421460548FEF7E1
:10BC700056FB002000F01CFA00201690C5E70000DB
:10BC8000905B02180C920020B5B80018BC070000A9
:10BC90001CB53A4B019200911A460146203A012008
:10BCA000FFF7A1FE1CBDF0B585B00446002903D006
:10BCB000FEF79CFC00285FD1204608300390001D51
:10BCC0000290001D0190001D071D3E1D009025469D
:10BCD00018F000FD2870010A6970010CA970000EAF
:10BCE000E870251D18F0F6FC2870010A6970010C37
:10BCF000A970000EE870039D18F0ECFC2870010A92
:10BD00006970010CA970000EE870029D18F0E2FC49
:10BD10002870010A6970010CA970000EE870019D7D
:10BD200018F0D8FC2870010A6970010CA970000E87
:10BD3000E870009D18F0CEFC2870010A6970010CB3
:10BD4000A970000EE8703D4618F0C4FC2870010A86
:10BD50006970010CA970000EE870354618F0BAFC45
:10BD60002870010A6970010CA970000EE870204665
:10BD7000FEF73CFC0028AAD005B0F0BD505B0218CD
:10BD800030B5C368826888689E4D141A2401C9685A
:10BD90002409AC4203D2904203D18B4201D8012046
:10BDA00030BD002030BD0A0C838889B2934204D193
:10BDB000C088884201D101207047002070477CB5BF
:10BDC000914D042000F083F92C69002C25D06846A1
:10BDD00000F0F3F80098A168081AC01E0001894914
:10BDE000000988420BD22046FCF7E1FFE168A06819
:10BDF00000F0F1F8002810D00020FCF7D8FF8248AE
:10BE00001030FEF7A9FA0446C1888088FF22FDF7AA
:10BE100063F92046FDF73AFAD3E77CBD10B57B49BC
:10BE2000042000F03BF910BDF0B5074685B00020B6
:10BE300002900E4674487649006915468A4201D937
:10BE40000D4602E0002D00D10125002807D0818891
:10BE5000B94204D1C088B04201D1012002906A48A1
:10BE60003A04103032436B49039000F0D9F80400D3
:10BE700006D102211020FDF7AFF987800446C68065
:10BE80007D212846090148430646634918F0F8FB1E
:10BE9000054661486843361A684600F08EF80099F6
:10BEA0000198491986190D0127202D0900018642A4
:10BEB00003D96D1C2D012D09361AE660A560574A7D
:10BEC0002146039800F0CBF84F48029900690029F9
:10BED00001D1A04201D1FCF76AFF3146284600F0AB
:10BEE0007AF8002802D0042000F0E2F805B0F0BD96
:10BEF00070B5454D02462C69002C24D0A3882846F5
:10BF00001030934214D1E3888B4211D1FEF724FA0A
:10BF10002D692846FCF74BFF002D0FD0E968A86873
:10BF200000F059F8002809D0042000F0C1F805E01D
:10BF300012040A43374900F073F80446002C02D07B
:10BF40002046FDF7A3F970BD2F4A126906E09388D9
:10BF5000834202D1D3888B4203D01268002AF6D1E3
:10BF600003E0002A01D00120704700207047F8B597
:10BF7000054625482726360104691BE07D2000017F
:10BF80002F4647432449384618F07AFB2249A268D5
:10BF90004143101800010009A060E268791A5118A5
:10BFA000E160B14205D9401C00010009A060881B76
:10BFB000E0602468002CE1D1F8BD7CB50446EFF3C5
:10BFC000108572B66846FCF7CFFD85F3108800989F
:10BFD000019903C47CBD7CB504460D466846FFF755
:10BFE000ECFF00980749201A00010009884205D299
:10BFF0000098A04204D10198854201D801207CBD5F
:10C0000000207CBDFFFFFF0744920020BFBD001849
:10C01000FFFF7F02A7BD00187102000081BD00185C
:10C02000F7B50F4606460025046814E0204602993D
:10C03000B84700280DD02068002D01D0286000E00E
:10C0400030602068002802D00020206005E0756084
:10C0500003E025462468002CE8D12046FEBDF7B554
:10C0600004680E4607460025002C08D0029A214697
:10C0700030469047002803D125462468F4E77E60C7
:10C080003460002D01D02E60FEBD3E60FEBD00007C
:10C0900010B53021334818F056FB10BD024603207E
:10C0A0000B2A04D290002F4A80184160002070476C
:10C0B00010B5EFF3108172B60B2805D2294B01247D
:10C0C0001A68844022431A6081F3108810BD10B5AD
:10C0D000EFF3108172B60B2805D2224B01241A68A7
:10C0E0008440A2431A6081F3108810BD02460020EC
:10C0F000EFF3108172B60B2A04D21A480068D040C0
:10C10000C007C00F81F31088704716480068704759
:10C11000144900200860704710B5124C1EE0202121
:10C12000020C01D010211046020A01D01046083935
:10C13000020901D01046091F820801D01046891E4D
:10C14000420801D0891E00E0091A1F20401A00068B
:10C15000800D00194068002800D080472068002822
:10C16000DDD110BD1492002070B5054630211A486B
:10C1700018F0E9FA0024A0002A5860004019018A4A
:10C180002046FCF7CFFF641CE4B2042CF3D3FFF786
:10C190007FFFFDF74AF9FFF741FE70BD10B50E486D
:10C1A000FEF7DAF8002802D0FCF7AAFFF7E70A4CFE
:10C1B00008342046FEF7D0F8002802D0FCF7A0FF94
:10C1C000F7E7054C10342046FEF7C6F8002802D0E9
:10C1D000FDF75CF8F7E710BD44920020F3B581B09D
:10C1E0000F46486801994968421A1401012224093E
:10C1F000D206944203D9081A00010009444201986A
:10C20000BD688668002C02DC28D1AE4226D20069C7
:10C21000F8493018451B281E04DD681E18F046FA40
:10C22000201A03E018F042FA201A401C002801DD11
:10C230000020FEBD3869EF49281A002804DD401EA1
:10C2400018F034FA201A03E018F030FA201A401CD3
:10C25000002801DD0120FEBD0220FEBD3F69E54949
:10C26000E819801B002805DD401E18F01FFA001990
:10C27000401C02E018F01AFA0019002801DC052021
:10C28000FEBD0198DB4900693018401BC01B002827
:10C2900004DD401E18F00AFA201A03E018F006FA2E
:10C2A000201A401C002801DD0320FEBD0420FEBD35
:10C2B000F1B584B0D04800900027046857E0A08A08
:10C2C00022688105890E0292820B4ED000294CD043
:10C2D000002201921646A27D03071B0FD218090106
:10C2E000049D1039A2758905890D3F2212019043E2
:10C2F0000143A18234E029462046FFF76FFF002862
:10C3000030D005282AD02969A8684618B94930468E
:10C3100018F0B6F901466868B64B40185943A26850
:10C32000711A8A4200D2401C060136096660A08A52
:10C33000800B022812D3AF49206918F0A1F9E168F7
:10C340000246881B000101230009DB06984203D93D
:10C35000701A000100094042824206DC2E462D6818
:10C36000002DC8D1019800280BD02746029C002C34
:10C37000A5D100980068002801D0FCF7B5FD05B0F4
:10C38000F0BD224639460098FEF70BF89A4822463F
:10C3900031460C38FEF74AF8E8E77CB5974830C8D4
:10C3A0006846FCF7E1FB01989249FF30913001901B
:10C3B000884207D34942401801900098401C000170
:10C3C000000900908C480C380068002805D0027ED7
:10C3D00041688568891A0C012409601C13D00098F3
:10C3E0008749201A00010009884205D20098A0421E
:10C3F00004D10198854201D8019D009C2946204620
:10C40000FCF70EFD7CBD0021481EF9E710B50028A1
:10C410000ED0012801D002280AD177480C38FDF748
:10C420006BFF7548FDF768FF734900200C39886081
:10C4300010BDF0B50546704887B00C380590002057
:10C4400006460190009007460290EFF31080069098
:10C4500072B603A8FCF788FB297E03987D2240185A
:10C4600004990001D200634B000989185B4203E084
:10C47000C918401C000100095E4A9142F8D26A685E
:10C480005F4C131A1B011B09A34204D282420DD137
:10C49000AA6891420AD9AA8A920B1FD06860AA683A
:10C4A0008A4203D2401C000100096860A88A800B00
:10C4B000022816D34F49286918F0E2F8EA6869683B
:10C4C0000446501A000101230009DB06984203D9F3
:10C4D000881A000100094042844202DD01200290D6
:10C4E0009BE045480C388468002C67D105980468A7
:10C4F00064E021462846FFF771FE002860D0052839
:10C5000039D0A97DA27D91420FD93B4B0C3B9B6852
:10C51000A3420AD0002E00D126467F1CFFB2009411
:10C5200001284DD003284BD025E0AB8A9B0B17D0B8
:10C530002169A06846182F49304618F0A1F8014635
:10C5400060682C4B40185943AA68711A8A4200D27D
:10C55000401C0001000900266860374600960AE08A
:10C560009142BBD924490C398968A142B6D103282C
:10C5700026D00428B2D1A88A800B022815D31D49E1
:10C58000286918F07DF80346E86869688446401A0F
:10C59000000101220009D206904204D96046081A1F
:10C5A000000100094042834298DC13480C3880683F
:10C5B000A0429BD0002F00D101942468002C98D178
:10C5C0000298002829D1002E0AD00B48009A0C3876
:10C5D0000199FDF7F3FE31460748009AFDF7AAFEE0
:10C5E000019800280ED0014603482A460C38FDF772
:10C5F0001DFF0DE071020000809200209864021877
:10C60000FFFFFF0729464F48FDF79FFEFFF7C5FED6
:10C61000002E02D02846FFF74BFE069880F31088C4
:10C62000029807B0F0BD70B504460026EFF3108500
:10C6300072B600281FD043488268A24202D100216E
:10C64000816018E0002916D10068A04205D13D485C
:10C65000FDF782FEFFF7A1FE0DE021463948FDF708
:10C6600085FE002807D1374821460C30FDF77EFEB5
:10C67000002800D1022685F31088304670BDFEB533
:10C68000304D68462C68FCF76FFA2E460C36002CAD
:10C690003BD0217E60682C4F401A0099411A491CFA
:10C6A00009010909B94209D2401C00010099000999
:10C6B00088420BD10198A168884207D92148FDF72B
:10C6C0004BFE01463046FDF72AFE1BE0217E6068E6
:10C6D000401A0099411A491E09010909B94209D2B3
:10C6E000401E00010099000988420ED1A0680199FE
:10C6F00088420AD81348FDF72FFEA860C1690029B7
:10C7000000D088472C68002CE0D13068002801D088
:10C71000FCF7EAFBFFF741FEFEBD70B509480C309F
:10C720000546FDF79AFE44B206E02846FDF714FEE2
:10C73000416A002900D088472046641E64B2002860
:10C74000F3DC70BD74920020FFFFFF071CB55B484F
:10C750000468002C22D06846FCF706FA27220198CC
:10C760001201101AFF2291320099904201D8012043
:10C7700000E00020401C08180001000900906068DB
:10C780000099401A00014E490009884201D26068B0
:10C7900001E000986060FCF730FB1CBD0020C04346
:10C7A000F9E710B5002806D0012801D0022802D1EF
:10C7B0004248FDF7A1FD10BDFEB5404E404F00259B
:10C7C0006846FCF7D1F93468002C13D000986168F2
:10C7D000401A00010009B8420CD23848FDF7BCFDF0
:10C7E000A168002901D020468847002DE8D0FFF736
:10C7F000ADFFFEBD002CFAD1FEBDFEB506460025FC
:10C80000EFF3108772B66846FCF7AEF9272201985D
:10C810001201101AFF22F5320099904201D801202E
:10C8200000E00020401C081800010009009070681A
:10C830000099401A010122480909814201D3009957
:10C8400071601E490C6808E061687268891A090104
:10C850000909814203D325462468002CF4D1002D18
:10C8600005D0324629461548FDF7E0FD05E0314682
:10C870001248FDF76AFDFFF769FF87F31088FEBDD8
:10C8800070B50025EFF3108472B60C4E316881420A
:10C8900008D13046FDF760FD3068002809D0FFF769
:10C8A00055FF06E001460548FDF760FD002800D170
:10C8B000022584F31088284670BD0000889200206D
:10C8C000FFFFFF07FFB58DB006460F981F463043A8
:10C8D00065D0012E01D1002F61D000200690012EDD
:10C8E00004D00F988068002E02D006E07868FAE73E
:10C8F0000E99002901D00F98C0680590012E0AD02A
:10C900000F98008A0990012E07D00F98C07C00284C
:10C9100003D0012002E0B889F4E70020029003A8C8
:10C92000FCF722F9039800210001C00F0090FE4897
:10C930008160FE488079002815D00098002812D127
:10C94000F94804680DE0656801202946000717F0E2
:10C9500097FE681AA1684018294617F091FEA16059
:10C960002468002CEFD1F14900988871012E14D071
:10C970000F984069019005980C90019800280ED0FE
:10C980000C9800280BD0012E0CD0029800280BD058
:10C990000125E54804680A9482E03868EAE7012046
:10C9A00011B0F0BDBD68F4E70025F2E7002E04D118
:10C9B0000E98002801D0276900E0E76860680090C1
:10C9C00000286CD0002F6AD0A18A0998814266D0D5
:10C9D00001990098884200D3084604900C983918B1
:10C9E0000498814201D90320DAE7A068049917F07E
:10C9F00047FECF1907917F1E0499019817F040FE5A
:10CA000000294CD10499009817F03AFE002946D12C
:10CA10002846049917F034FE0C9808910818401E17
:10CA200003900798814201D3B9421ED90799039810
:10CA3000884201D3B84218D90898884202D803988E
:10CA4000B84212D20498874206D30146384617F0FE
:10CA500017FE0898814208D20499039888421ED391
:10CA600017F00EFE0798814219D3012E04D0781CCE
:10CA7000049917F005FE05E0AB48019D84600CE0C9
:10CA800004980918A942FBD902980D46A84303D17E
:10CA900002988143C80700D06D1C0A9C00E02468FE
:10CAA000002C02D00198854280D30198854202D3A0
:10CAB000032006900CE0002E0AD10F982A468561CB
:10CAC0000F980599038A406900F0F6F80F99C8613C
:10CAD000069865E710B5002806D0012801D0022885
:10CAE00002D19148FDF708FC10BD1FB5044640680F
:10CAF0000090E0680190A08A69468881A0680022C1
:10CB000002906B4611460120FFF7DCFE03281BD183
:10CB100085488068002817D0A269002A02D181695F
:10CB2000002911D0002A01D0214600E00146002A48
:10CB300007D08269002A04D0A27D837D9A4200D268
:10CB40000146888A8969884721467748FDF7E7FBCF
:10CB50001FBD10B501467448FDF708FC10BD10B5A7
:10CB6000044600F0E5F80023224601211846FFF7AD
:10CB7000A9FE002809D0E268A168914205D20023ED
:10CB8000224619461846FFF79DFE10BD00220346B7
:10CB90001146012096E6FFB589B0002002900B985F
:10CBA000002809D00C98002806D0129807881398FE
:10CBB00000880390874201D901206BE05A4804683D
:10CBC0000C980694401E80B207900C990B98401A5E
:10CBD000059049E06068019000284ED0E06804901C
:10CBE00000284AD0207D41060998490E814244D050
:10CBF0000B990198884200D3084680B200900C99A6
:10CC0000049841180098814202D9032002903DE027
:10CC10000146384617F034FDA26800981018401AF3
:10CC2000009917F02DFD8DB20498691E40180099E7
:10CC300017F026FD88B2049000990B9817F020FD9C
:10CC400000291AD10099019817F01AFD002914D172
:10CC50000798A84202D20498A84207D20498069CDA
:10CC60003818401C87B2059886B207E00C98301837
:10CC7000A84202D90C98281A86B22468002C05D044
:10CC80000398B84202D30A98FF28A3D10398B84268
:10CC900003D8032002900DB0F0BDC01BB04200DAF3
:10CCA000064638460B9917F0EBFC1298018088195C
:10CCB000139908800298EEE7FFB581B00746039804
:10CCC000C51919486D1E046825E0A18A049881429F
:10CCD00020D060680090B84201D33E4600E006468E
:10CCE0003146384617F0CCFC002913D13146009864
:10CCF00017F0C6FC00290DD13146A06817F0C0FC22
:10CD000000E0891903988142FBD90298081AA842C9
:10CD100000D205462468002CD7D13946284617F0A2
:10CD2000AFFC084605B0F0BD909200209C92002018
:10CD3000FEB5064640680090706131680098029127
:10CD4000814242D20024E443254600211F4809E0E5
:10CD5000828A338A9A4205D0491C4268C9B2AA42E3
:10CD600000D2154600680028F2D1002908D00098AA
:10CD7000A8420FD3294617F083FC684304461DE000
:10CD8000B57C002D1AD02946009817F079FC2C4666
:10CD9000444313E007460020019009E03946284645
:10CDA00017F06EFC002902D101203C460190BF1E05
:10CDB0000298B84202D801980028EFD00298A04209
:10CDC00003D80098A04200D37461FEBD9092002069
:10CDD000FEB559495748888001900020C04308603B
:10CDE000009008460830524E456832E020202C461C
:10CDF000290C01D010200C46210A01D00C4608381D
:10CE0000210901D00C46001FA10801D00C46801E4C
:10CE1000610801D0801E00E0001B1F210C1A46484B
:10CE2000A100083009188F68002F0FD06100081882
:10CE3000008B424917F024FC381A80B2022801D92D
:10CE4000801E80B2864200D2304686B20120A040C9
:10CE50008543002DCAD1394A019837495643B0421B
:10CE600000D330468880344808300068421C0AD01D
:10CE7000009A521C06D0009A314B121A1201120964
:10CE80009A4200D30860FEBD10B5002813D00128D7
:10CE900001D002280FD128482021083017F053FC78
:10CEA00025480021C9430830016008380160214944
:10CEB00081800021817110BD8AE789E7022802D1B3
:10CEC0001D480830016083E710B5022803D11A49D4
:10CED000C01E08310860FFF77BFF17480068401C40
:10CEE00001D10AF06BFD10BD30B4032801D0042835
:10CEF0000CD111488C0008302418A2604A00121886
:10CF00001383012342688B401A43426030BC5FE7C1
:10CF1000032801D004280AD107488B0008300022DA
:10CF20001B189A60012342688B409A4342604FE786
:10CF3000FFFF0000E45700009C92002071020000F7
:10CF4000FFFFFF0710B50B0017F0DAFC05212104E5
:10CF5000081B2100014608228A4816E0014689483C
:10CF60000822083817F024FC86490020864A083930
:10CF70000B5C145C23430B54401CC0B20828F7D34D
:10CF800005E001467F480822083017F011FC002018
:10CF900010BD10B5002803D0012812D0022810D1EE
:10CFA00078481C21083817F0CEFB77480321103849
:10CFB000FFF7C8FF744804210838FFF7C3FF05F0E6
:10CFC0007FFE10BD70B5044606460C3C204600F0BE
:10CFD0009DF800284AD1A1886C4804250818030050
:10CFE00017F08EFC06040411151F1E1F208900284F
:10CFF00007D005F017FE002813D080788006850F33
:10D000000FE000250DE0207A05F034FE02E0207BE1
:10D0100005F042FE002804D040788507AD0F00E0FF
:10D020000225002D04D0012D04D0022D1ED10DE0CB
:10D03000072016E0E088042818D2FCF77AFDFF28C4
:10D0400002D0000208300AE008200AE0E088042844
:10D050000CD2FCF76EFDFF2808D00002001DFF284F
:10D0600004D0E0803046FCF727F870BD2046FCF77E
:10D0700047F870BDF8B5054606460C3D4349A888FB
:10D08000FF240A27091F401802D001280AD108E00E
:10D09000288905F0C7FD002804D0807807073F0FD6
:10D0A00000E003273B0017F02BFC09060806080EDA
:10D0B0000E0E0E150E00002407E0E88804280BD29F
:10D0C0000002401C84B2FF2C06D0EC803046FBF7F7
:10D0D000F3FFF8BD0224F8E72846FCF711F8F8BD85
:10D0E00010B50023024619462948FBF7CDFFFFF78C
:10D0F000C1FF10BD234A0121083A1018017670477C
:10D10000204A0021083A10180176704770B502468F
:10D110001E4B91889B1E1B4CC9180020083C012304
:10D12000002903D001291ED13E2102E0117A4029B5
:10D130001BD2481EC0B2C5084007655D400F1E46A1
:10D140008640354201D1012000E00020002809D1AD
:10D150003E2907D1107B401EC0B2C1080919097CC5
:10D160000AE0012070BD002070BD5929FCD2403971
:10D17000C8B2C1080919097A4007400F8340194213
:10D18000F1D1EEE7CC920020B0640218FFFCFFFF63
:10D190000503000010B5044600F0CAFB2046FCF76A
:10D1A00026FE204601F0A2F9204600F029F810BD25
:10D1B000F8B50A20FEF78BFF334E3588002D1ED0C0
:10D1C000EFF3108772B600240BE00121A140294241
:10D1D00003D0C1B2204605F0BAFE641CE4B2032CB1
:10D1E00002D2F0880028F0D187F310883088002818
:10D1F00005D0F088002802D00A20FEF759FFF8BDBC
:10D2000010B5040004D0012C0AD0022C0CD104E08B
:10D210001E490A20FEF742FF06E00A20FEF757FFEC
:10D220000821194817F08FFA204605F035FE10BD89
:10D2300010B505F055FE10BD70B50124124D8440A7
:10D24000288800290BD0204205D1E888002802D088
:10D250000A20FEF72DFF28882043288070BDA043B8
:10D26000FBE710B504460021FFF7E6FF002120464A
:10D2700005F0B8FD10BD044A50809180D180704700
:10D280000148C08870470000E0920020B1D100182A
:10D290007FB50446FEA369CB03966E4629C60023DC
:10D2A000042A0CD0022A0AD010226846C01817F0AF
:10D2B0007FFA10226946204617F07AFA7FBD0C23C8
:10D2C000F3E770B5002488B01D461646022906D043
:10D2D000042908D010290BD0102D09D01AE0022DF6
:10D2E000FAD1022202E0042DF6D1042231460CE0EC
:10D2F0000A4601466846FFF7CBFF2A46314604A896
:10D30000FFF7C6FF102204A9684617F027FA002885
:10D3100000D10124204608B070BD07B5022302AA3F
:10D32000FFF7CFFF0EBD1FB5D9A11EC9009101A9FE
:10D330001CC1017B6A461173417B51731023024665
:10D3400019466846FFF7BDFF04B010BD1FB504467F
:10D35000CFA30FCB03936B4607C3214604220C31A6
:10D3600003A817F025FA1023224619466846FFF74E
:10D37000A8FFE9E7FFB581B00026144601200B9F06
:10D380000CE0002C06D0C108615C4207520FD1406E
:10D39000C90701D0761CF6B2401CC0B2049988427D
:10D3A000EFD330461621484303211630FBF714FF14
:10D3B000054601980023018829806E716F800D99C0
:10D3C0009F200140297169460989E98001211DE0FA
:10D3D000002C06D0C808205C4A07520FD040C00776
:10D3E00012D00C98CA00121816205843D68840193B
:10D3F0000685968803277F03BE4346855688C684E4
:10D4000012885B1CC282DBB2491CC9B204988142FB
:10D41000DED3284600F0BBFC06001DD10198298808
:10D4200001800020014611E0002C06D0CA08A25C51
:10D430004B075B0FDA40D20706D0019A0A9B12789D
:10D440001218401C5A54C0B2491CC9B2049A9142E5
:10D4500002D20A9A002AE7D12846FBF717FF304686
:10D4600005B0F0BDFFB581B00024154601200D9F29
:10D470000CE0002D06D0C108695C4207520FD14074
:10D48000C90701D0641CE4B2401CC0B204998842B0
:10D49000EFD320461621484303211630FBF79CFEAC
:10D4A000064601980188318074710B997180780665
:10D4B0003771810F0AD0800F012809D01022B01DCA
:10D4C000029917F075F90027012428E00222F6E7F7
:10D4D0000422F4E7002D06D0E008285C6107490F1C
:10D4E000C840C00719D016200C9960434118162077
:10D4F00078438A8A801902854A8A42850A8AC284C8
:10D500004A8A5204930F13D0920F012A12D010228C
:10D51000163017F04DF97F1CFFB2641CE4B204987A
:10D520008442D7D3304600F032FC040004D021E01E
:10D530000222EDE70422EBE7019831880180002107
:10D54000084611E0002D06D0C208AA5C43075B0F15
:10D55000DA40D20706D0019A0A9B12785218491C69
:10D560001A54C9B2401CC0B2049A904202D20A9A1C
:10D57000002AE7D13046FBF789FE204670E710B558
:10D5800086B0044600886A461080491E517168467C
:10D5900000F0CEFB6A461188218006B010BDFFB5B1
:10D5A0000F4683B00021009101911646694600F0B4
:10D5B000D4FD040033D10521C902684600F025FEE0
:10D5C00000282BD13649684600F01FFE002825D1DF
:10D5D00033496846891C00F018FE00281ED13049E6
:10D5E0006846491C00F011FE002817D129210902C4
:10D5F000684600F00AFE002810D12A49684600F06B
:10D6000004FE00280AD127496846491C00F0FDFDA8
:10D61000002803D100988088C10B03D0062420463F
:10D6200007B0F0BD00050099000D0D186888B042E4
:10D6300000D207242988B819884201D90D24EEE7C1
:10D64000A8193A46001D069917F0B2F86F80E6E770
:10D65000F7B58CB000200290039068460E46008E0D
:10D66000154602A9009000F078FD040072D1052152
:10D67000C90202A800F0C9FD0B4F002805D10849D6
:10D6800002A800F0C2FD00281ED0012003460DE0D4
:10D69000FB349B5F80000080001000000000000051
:10D6A000012800000229000007930020009004AA2E
:10D6B00001A902A800F009FE04004BD168460279D6
:10D6C000328004A9384662E0A14902A800F09DFD1D
:10D6D000002824D000200890099000986946401C3A
:10D6E00080B2088608A90A9000F037FD040030D106
:10D6F00001200090002304AA01A908A800F0E5FD7C
:10D70000684602799349D01C308008984088000A06
:10D71000C8770A9808848F4804A9223037E08C49DA
:10D7200002A8491E00F071FD002834D002988188BB
:10D730000905090D4018417902790802104369462C
:10D74000088600210891099108A900F006FD04004F
:10D7500001D0802434E001200346009004AA01A9EE
:10D7600008A800F0B2FD684602797A49101D3080A1
:10D77000089820230678CE77407858547548089941
:10D7800021308B780370C978417004A9801C17F090
:10D790000FF82F6014E02921090202A800F035FDDE
:10D7A0000028029808D081880905090D4018022137
:10D7B0003180001D286003E08088C10B03D006245F
:10D7C00020460FB0F0BD00050299000D0818011D9C
:10D7D000296040883080F3E7F7B584B000260F4613
:10D7E000009669460196049800F0B7FC050045D103
:10D7F0000521C902684600F008FD00281AD15449E5
:10D800006846891E00F001FD002813D15049684682
:10D8100000F0FBFC00280DD14D496846491E00F080
:10D82000F4FC002806D129210902684600F0EDFC2D
:10D83000002801D0062521E00498009C401E029695
:10D84000039680B202A900F088FC00280CD1404960
:10D8500002A800F0DAFC002806D06088390A000A25
:10D86000884201D000F07CFE67800698C1043A48E7
:10D87000A18801D5014300E08143A1802846CFE67D
:10D880007CB500230E46154600936946019300F0CF
:10D8900064FC040029D10521C902684600F0B5FCEA
:10D8A00000281AD12A496846891E00F0AEFC0028DB
:10D8B00013D12749684600F0A8FC00280DD124495F
:10D8C0006846491E00F0A1FC002806D12921090262
:10D8D000684600F09AFC002801D0062405E0009874
:10D8E00000994088B0432843488020467CBD70B5ED
:10D8F0000D46002400F08AFA002808D09F210D4030
:10D90000817A4906890F0D438572204670BD012436
:10D91000FBE770B50D46002400F078FA002805D02A
:10D92000807A9F2108402870204670BD0124FBE7C3
:10D9300010B5002805D0012804D0022801D100F03C
:10D94000D5FB10BD034800214160816010BD00007F
:10D9500003280000E892002000100000FEB50746F2
:10D960000020019038790C464006810F0ED0800FC0
:10D9700001280DD002280DD000201021218004287C
:10D980000AD010280AD000282AD02BE00220F4E781
:10D990000420F2E71020F0E714201FE0B81DFFF785
:10D9A000C2FC9F26BD1C002805D038793040387154
:10D9B000288AF88016E0B81DFFF7C8FC00282088E8
:10D9C0000BD0001D20803879202130400843387169
:10D9D000288AF880688A388104E01030208001E0CD
:10D9E0004020019000209CE0029816214843C51970
:10D9F000688D4004810F17D0800F012816D00228AF
:10DA000016D0002000902088801D208000980028DB
:10DA100017D02E46163605220146D2023046FFF7B1
:10DA20007CFC00280DD105E00220EBE70420E9E7AB
:10DA30001020E7E73046FD4A0099FFF76EFC00280A
:10DA400001D0402014E03046F94A0099FFF765FC08
:10DA5000002807D1F64A3046521C0099FFF75DFCBA
:10DA6000002807D0E88C810501D5000556D4562042
:10DA700001905EE0ED4A3046521C0099FFF74DFCE4
:10DA8000002807D12922304612020099FFF745FCF1
:10DA9000002802D02088801D3FE0E44A3046921CD6
:10DAA0000099FFF73AFC002838D10098042802D0EA
:10DAB000102803D026E02088001D22E03046FFF722
:10DAC00032FC002807D0688D03214903884368850C
:10DAD000688CE88216E03046FFF738FC0028208882
